{
  "contracts/ProxyTest.sol": {
    "ProxyTest": {
      "abi": [
        {
          "stateMutability": "payable",
          "type": "fallback"
        },
        {
          "inputs": [
            {
              "internalType": "address",
              "name": "newDelegateAddress",
              "type": "address"
            }
          ],
          "name": "upgradeDelegate",
          "outputs": [],
          "stateMutability": "nonpayable",
          "type": "function"
        }
      ],
      "evm": {
        "bytecode": {
          "linkReferences": {},
          "object": "6080604052600180546001600160a01b0319163317905534801561002257600080fd5b5060f8806100316000396000f3fe608060405260043610601c5760003560e01c80632da4e75c14603f575b600080543682833781823684845af490503d82833e808015603b573d83f35b8283fd5b348015604a57600080fd5b50605a60563660046094565b605c565b005b6001546001600160a01b03163314607257600080fd5b600080546001600160a01b0319166001600160a01b0392909216919091179055565b60006020828403121560a557600080fd5b81356001600160a01b038116811460bb57600080fd5b939250505056fea264697066735822122042f568a88df50524cda44c86b6fb24935ef55ad8ab0005dc522c909e6d82d43764736f6c63430008070033",
          "opcodes": "PUSH1 0x80 PUSH1 0x40 MSTORE PUSH1 0x1 DUP1 SLOAD PUSH1 0x1 PUSH1 0x1 PUSH1 0xA0 SHL SUB NOT AND CALLER OR SWAP1 SSTORE CALLVALUE DUP1 ISZERO PUSH2 0x22 JUMPI PUSH1 0x0 DUP1 REVERT JUMPDEST POP PUSH1 0xF8 DUP1 PUSH2 0x31 PUSH1 0x0 CODECOPY PUSH1 0x0 RETURN INVALID PUSH1 0x80 PUSH1 0x40 MSTORE PUSH1 0x4 CALLDATASIZE LT PUSH1 0x1C JUMPI PUSH1 0x0 CALLDATALOAD PUSH1 0xE0 SHR DUP1 PUSH4 0x2DA4E75C EQ PUSH1 0x3F JUMPI JUMPDEST PUSH1 0x0 DUP1 SLOAD CALLDATASIZE DUP3 DUP4 CALLDATACOPY DUP2 DUP3 CALLDATASIZE DUP5 DUP5 GAS DELEGATECALL SWAP1 POP RETURNDATASIZE DUP3 DUP4 RETURNDATACOPY DUP1 DUP1 ISZERO PUSH1 0x3B JUMPI RETURNDATASIZE DUP4 RETURN JUMPDEST DUP3 DUP4 REVERT JUMPDEST CALLVALUE DUP1 ISZERO PUSH1 0x4A JUMPI PUSH1 0x0 DUP1 REVERT JUMPDEST POP PUSH1 0x5A PUSH1 0x56 CALLDATASIZE PUSH1 0x4 PUSH1 0x94 JUMP JUMPDEST PUSH1 0x5C JUMP JUMPDEST STOP JUMPDEST PUSH1 0x1 SLOAD PUSH1 0x1 PUSH1 0x1 PUSH1 0xA0 SHL SUB AND CALLER EQ PUSH1 0x72 JUMPI PUSH1 0x0 DUP1 REVERT JUMPDEST PUSH1 0x0 DUP1 SLOAD PUSH1 0x1 PUSH1 0x1 PUSH1 0xA0 SHL SUB NOT AND PUSH1 0x1 PUSH1 0x1 PUSH1 0xA0 SHL SUB SWAP3 SWAP1 SWAP3 AND SWAP2 SWAP1 SWAP2 OR SWAP1 SSTORE JUMP JUMPDEST PUSH1 0x0 PUSH1 0x20 DUP3 DUP5 SUB SLT ISZERO PUSH1 0xA5 JUMPI PUSH1 0x0 DUP1 REVERT JUMPDEST DUP2 CALLDATALOAD PUSH1 0x1 PUSH1 0x1 PUSH1 0xA0 SHL SUB DUP2 AND DUP2 EQ PUSH1 0xBB JUMPI PUSH1 0x0 DUP1 REVERT JUMPDEST SWAP4 SWAP3 POP POP POP JUMP INVALID LOG2 PUSH5 0x6970667358 0x22 SLT KECCAK256 TIMESTAMP CREATE2 PUSH9 0xA88DF50524CDA44C86 0xB6 0xFB 0x24 SWAP4 0x5E CREATE2 GAS 0xD8 0xAB STOP SDIV 0xDC MSTORE 0x2C SWAP1 SWAP15 PUSH14 0x82D43764736F6C63430008070033 "
        },
        "methodIdentifiers": {
          "upgradeDelegate(address)": "2da4e75c"
        }
      }
    }
  }
}