{
  "_format": "hh-sol-artifact-1",
  "contractName": "ERC20Token",
  "sourceName": "contracts/ERC20.sol",
  "abi": [
    {
      "inputs": [
        {
          "internalType": "uint256",
          "name": "initialSupply",
          "type": "uint256"
        },
        {
          "internalType": "string",
          "name": "name",
          "type": "string"
        },
        {
          "internalType": "string",
          "name": "symbol",
          "type": "string"
        }
      ],
      "stateMutability": "nonpayable",
      "type": "constructor"
    },
    {
      "anonymous": false,
      "inputs": [
        {
          "indexed": true,
          "internalType": "address",
          "name": "owner",
          "type": "address"
        },
        {
          "indexed": true,
          "internalType": "address",
          "name": "spender",
          "type": "address"
        },
        {
          "indexed": false,
          "internalType": "uint256",
          "name": "value",
          "type": "uint256"
        }
      ],
      "name": "Approval",
      "type": "event"
    },
    {
      "anonymous": false,
      "inputs": [
        {
          "indexed": true,
          "internalType": "address",
          "name": "from",
          "type": "address"
        },
        {
          "indexed": true,
          "internalType": "address",
          "name": "to",
          "type": "address"
        },
        {
          "indexed": false,
          "internalType": "uint256",
          "name": "value",
          "type": "uint256"
        }
      ],
      "name": "Transfer",
      "type": "event"
    },
    {
      "inputs": [
        {
          "internalType": "address",
          "name": "owner",
          "type": "address"
        },
        {
          "internalType": "address",
          "name": "spender",
          "type": "address"
        }
      ],
      "name": "allowance",
      "outputs": [
        {
          "internalType": "uint256",
          "name": "",
          "type": "uint256"
        }
      ],
      "stateMutability": "view",
      "type": "function"
    },
    {
      "inputs": [
        {
          "internalType": "address",
          "name": "spender",
          "type": "address"
        },
        {
          "internalType": "uint256",
          "name": "amount",
          "type": "uint256"
        }
      ],
      "name": "approve",
      "outputs": [
        {
          "internalType": "bool",
          "name": "",
          "type": "bool"
        }
      ],
      "stateMutability": "nonpayable",
      "type": "function"
    },
    {
      "inputs": [
        {
          "internalType": "address",
          "name": "account",
          "type": "address"
        }
      ],
      "name": "balanceOf",
      "outputs": [
        {
          "internalType": "uint256",
          "name": "",
          "type": "uint256"
        }
      ],
      "stateMutability": "view",
      "type": "function"
    },
    {
      "inputs": [],
      "name": "decimals",
      "outputs": [
        {
          "internalType": "uint8",
          "name": "",
          "type": "uint8"
        }
      ],
      "stateMutability": "view",
      "type": "function"
    },
    {
      "inputs": [
        {
          "internalType": "address",
          "name": "spender",
          "type": "address"
        },
        {
          "internalType": "uint256",
          "name": "subtractedValue",
          "type": "uint256"
        }
      ],
      "name": "decreaseAllowance",
      "outputs": [
        {
          "internalType": "bool",
          "name": "",
          "type": "bool"
        }
      ],
      "stateMutability": "nonpayable",
      "type": "function"
    },
    {
      "inputs": [
        {
          "internalType": "address",
          "name": "spender",
          "type": "address"
        },
        {
          "internalType": "uint256",
          "name": "addedValue",
          "type": "uint256"
        }
      ],
      "name": "increaseAllowance",
      "outputs": [
        {
          "internalType": "bool",
          "name": "",
          "type": "bool"
        }
      ],
      "stateMutability": "nonpayable",
      "type": "function"
    },
    {
      "inputs": [],
      "name": "name",
      "outputs": [
        {
          "internalType": "string",
          "name": "",
          "type": "string"
        }
      ],
      "stateMutability": "view",
      "type": "function"
    },
    {
      "inputs": [],
      "name": "owner",
      "outputs": [
        {
          "internalType": "address",
          "name": "",
          "type": "address"
        }
      ],
      "stateMutability": "view",
      "type": "function"
    },
    {
      "inputs": [],
      "name": "symbol",
      "outputs": [
        {
          "internalType": "string",
          "name": "",
          "type": "string"
        }
      ],
      "stateMutability": "view",
      "type": "function"
    },
    {
      "inputs": [],
      "name": "totalSupply",
      "outputs": [
        {
          "internalType": "uint256",
          "name": "",
          "type": "uint256"
        }
      ],
      "stateMutability": "view",
      "type": "function"
    },
    {
      "inputs": [
        {
          "internalType": "address",
          "name": "recipient",
          "type": "address"
        },
        {
          "internalType": "uint256",
          "name": "amount",
          "type": "uint256"
        }
      ],
      "name": "transfer",
      "outputs": [
        {
          "internalType": "bool",
          "name": "",
          "type": "bool"
        }
      ],
      "stateMutability": "nonpayable",
      "type": "function"
    },
    {
      "inputs": [
        {
          "internalType": "address",
          "name": "sender",
          "type": "address"
        },
        {
          "internalType": "address",
          "name": "recipient",
          "type": "address"
        },
        {
          "internalType": "uint256",
          "name": "amount",
          "type": "uint256"
        }
      ],
      "name": "transferFrom",
      "outputs": [
        {
          "internalType": "bool",
          "name": "",
          "type": "bool"
        }
      ],
      "stateMutability": "nonpayable",
      "type": "function"
    }
  ],
  "bytecode": "0x60806040523480156200001157600080fd5b5060405162000de938038062000de98339810160408190526200003491620002e0565b8151829082906200004d90600390602085019062000183565b5080516200006390600490602084019062000183565b50505062000080336012856200007a9190620003b8565b6200009b565b5050600580546001600160a01b0319163317905550620004ef565b6001600160a01b038216620000f65760405162461bcd60e51b815260206004820152601f60248201527f45524332303a206d696e7420746f20746865207a65726f206164647265737300604482015260640160405180910390fd5b80600260008282546200010a919062000354565b90915550506001600160a01b038216600090815260208190526040812080548392906200013990849062000354565b90915550506040518181526001600160a01b038316906000907fddf252ad1be2c89b69c2b068fc378daa952ba7f163c4a11628f55a4df523b3ef9060200160405180910390a35050565b828054620001919062000486565b90600052602060002090601f016020900481019282620001b5576000855562000200565b82601f10620001d057805160ff191683800117855562000200565b8280016001018555821562000200579182015b8281111562000200578251825591602001919060010190620001e3565b506200020e92915062000212565b5090565b5b808211156200020e576000815560010162000213565b600082601f8301126200023b57600080fd5b81516001600160401b0380821115620002585762000258620004d9565b604051601f8301601f19908116603f01168101908282118183101715620002835762000283620004d9565b81604052838152602092508683858801011115620002a057600080fd5b600091505b83821015620002c45785820183015181830184015290820190620002a5565b83821115620002d65760008385830101525b9695505050505050565b600080600060608486031215620002f657600080fd5b835160208501519093506001600160401b03808211156200031657600080fd5b620003248783880162000229565b935060408601519150808211156200033b57600080fd5b506200034a8682870162000229565b9150509250925092565b600082198211156200036a576200036a620004c3565b500190565b600181815b80851115620003b0578160001904821115620003945762000394620004c3565b80851615620003a257918102915b93841c939080029062000374565b509250929050565b6000620003c960ff841683620003d0565b9392505050565b600082620003e15750600162000480565b81620003f05750600062000480565b8160018114620004095760028114620004145762000434565b600191505062000480565b60ff841115620004285762000428620004c3565b50506001821b62000480565b5060208310610133831016604e8410600b841016171562000459575081810a62000480565b6200046583836200036f565b80600019048211156200047c576200047c620004c3565b0290505b92915050565b600181811c908216806200049b57607f821691505b60208210811415620004bd57634e487b7160e01b600052602260045260246000fd5b50919050565b634e487b7160e01b600052601160045260246000fd5b634e487b7160e01b600052604160045260246000fd5b6108ea80620004ff6000396000f3fe608060405234801561001057600080fd5b50600436106100a45760003560e01c806306fdde03146100a9578063095ea7b3146100c757806318160ddd146100ea57806323b872dd146100fc578063313ce5671461010f578063395093511461011e57806370a08231146101315780638da5cb5b1461015a57806395d89b4114610185578063a457c2d71461018d578063a9059cbb146101a0578063dd62ed3e146101b3575b600080fd5b6100b16101ec565b6040516100be91906107fe565b60405180910390f35b6100da6100d53660046107d4565b61027e565b60405190151581526020016100be565b6002545b6040519081526020016100be565b6100da61010a366004610798565b610294565b604051601281526020016100be565b6100da61012c3660046107d4565b610343565b6100ee61013f366004610743565b6001600160a01b031660009081526020819052604090205490565b60055461016d906001600160a01b031681565b6040516001600160a01b0390911681526020016100be565b6100b161037f565b6100da61019b3660046107d4565b61038e565b6100da6101ae3660046107d4565b610427565b6100ee6101c1366004610765565b6001600160a01b03918216600090815260016020908152604080832093909416825291909152205490565b6060600380546101fb90610879565b80601f016020809104026020016040519081016040528092919081815260200182805461022790610879565b80156102745780601f1061024957610100808354040283529160200191610274565b820191906000526020600020905b81548152906001019060200180831161025757829003601f168201915b5050505050905090565b600061028b338484610434565b50600192915050565b60006102a1848484610558565b6001600160a01b03841660009081526001602090815260408083203384529091529020548281101561032b5760405162461bcd60e51b815260206004820152602860248201527f45524332303a207472616e7366657220616d6f756e74206578636565647320616044820152676c6c6f77616e636560c01b60648201526084015b60405180910390fd5b6103388533858403610434565b506001949350505050565b3360008181526001602090815260408083206001600160a01b0387168452909152812054909161028b91859061037a908690610853565b610434565b6060600480546101fb90610879565b3360009081526001602090815260408083206001600160a01b0386168452909152812054828110156104105760405162461bcd60e51b815260206004820152602560248201527f45524332303a2064656372656173656420616c6c6f77616e63652062656c6f77604482015264207a65726f60d81b6064820152608401610322565b61041d3385858403610434565b5060019392505050565b600061028b338484610558565b6001600160a01b0383166104965760405162461bcd60e51b8152602060048201526024808201527f45524332303a20617070726f76652066726f6d20746865207a65726f206164646044820152637265737360e01b6064820152608401610322565b6001600160a01b0382166104f75760405162461bcd60e51b815260206004820152602260248201527f45524332303a20617070726f766520746f20746865207a65726f206164647265604482015261737360f01b6064820152608401610322565b6001600160a01b0383811660008181526001602090815260408083209487168084529482529182902085905590518481527f8c5be1e5ebec7d5bd14f71427d1e84f3dd0314c0f7b2291e5b200ac8c7c3b925910160405180910390a3505050565b6001600160a01b0383166105bc5760405162461bcd60e51b815260206004820152602560248201527f45524332303a207472616e736665722066726f6d20746865207a65726f206164604482015264647265737360d81b6064820152608401610322565b6001600160a01b03821661061e5760405162461bcd60e51b815260206004820152602360248201527f45524332303a207472616e7366657220746f20746865207a65726f206164647260448201526265737360e81b6064820152608401610322565b6001600160a01b038316600090815260208190526040902054818110156106965760405162461bcd60e51b815260206004820152602660248201527f45524332303a207472616e7366657220616d6f756e7420657863656564732062604482015265616c616e636560d01b6064820152608401610322565b6001600160a01b038085166000908152602081905260408082208585039055918516815290812080548492906106cd908490610853565b92505081905550826001600160a01b0316846001600160a01b03167fddf252ad1be2c89b69c2b068fc378daa952ba7f163c4a11628f55a4df523b3ef8460405161071991815260200190565b60405180910390a350505050565b80356001600160a01b038116811461073e57600080fd5b919050565b60006020828403121561075557600080fd5b61075e82610727565b9392505050565b6000806040838503121561077857600080fd5b61078183610727565b915061078f60208401610727565b90509250929050565b6000806000606084860312156107ad57600080fd5b6107b684610727565b92506107c460208501610727565b9150604084013590509250925092565b600080604083850312156107e757600080fd5b6107f083610727565b946020939093013593505050565b600060208083528351808285015260005b8181101561082b5785810183015185820160400152820161080f565b8181111561083d576000604083870101525b50601f01601f1916929092016040019392505050565b6000821982111561087457634e487b7160e01b600052601160045260246000fd5b500190565b600181811c9082168061088d57607f821691505b602082108114156108ae57634e487b7160e01b600052602260045260246000fd5b5091905056fea26469706673582212204b68894e01b3f9d9ddd5b774d7ddc84892987387dc766134be37eb00ebd2e06564736f6c63430008070033",
  "linkReferences": {},
  "deployedLinkReferences": {}
}