{
  "_format": "hh-sol-artifact-1",
  "contractName": "FacetA",
  "sourceName": "contracts/FacetA.sol",
  "abi": [
    {
      "stateMutability": "payable",
      "type": "fallback"
    },
    {
      "inputs": [],
      "name": "getValue",
      "outputs": [
        {
          "internalType": "string",
          "name": "",
          "type": "string"
        }
      ],
      "stateMutability": "view",
      "type": "function"
    },
    {
      "inputs": [
        {
          "internalType": "string",
          "name": "_val",
          "type": "string"
        }
      ],
      "name": "setValue",
      "outputs": [],
      "stateMutability": "nonpayable",
      "type": "function"
    }
  ],
  "bytecode": "0x608060405234801561001057600080fd5b50610459806100206000396000f3fe6080604052600436106100295760003560e01c8063209652551461006557806393a0935214610090575b6100636040518060400160405280601981526020017848656c6c6f2066726f6d2046616365742066616c6c6261636b60381b8152506100b0565b005b34801561007157600080fd5b5061007a6100f6565b604051610087919061037d565b60405180910390f35b34801561009c57600080fd5b506100636100ab3660046102cd565b6101c2565b6100f3816040516024016100c4919061037d565b60408051601f198184030181529190526020810180516001600160e01b031663104c13eb60e21b179052610213565b50565b60606101326040518060400160405280601981526020017848656c6c6f2066726f6d2066616365742067657456616c756560381b8152506100b0565b6003805461013f906103d2565b80601f016020809104026020016040519081016040528092919081815260200182805461016b906103d2565b80156101b85780601f1061018d576101008083540402835291602001916101b8565b820191906000526020600020905b81548152906001019060200180831161019b57829003601f168201915b5050505050905090565b6101fc6040518060400160405280601981526020017848656c6c6f2066726f6d2066616365742073657456616c756560381b8152506100b0565b805161020f906003906020840190610234565b5050565b80516a636f6e736f6c652e6c6f67602083016000808483855afa5050505050565b828054610240906103d2565b90600052602060002090601f01602090048101928261026257600085556102a8565b82601f1061027b57805160ff19168380011785556102a8565b828001600101855582156102a8579182015b828111156102a857825182559160200191906001019061028d565b506102b49291506102b8565b5090565b5b808211156102b457600081556001016102b9565b6000602082840312156102df57600080fd5b81356001600160401b03808211156102f657600080fd5b818401915084601f83011261030a57600080fd5b81358181111561031c5761031c61040d565b604051601f8201601f19908116603f011681019083821181831017156103445761034461040d565b8160405282815287602084870101111561035d57600080fd5b826020860160208301376000928101602001929092525095945050505050565b600060208083528351808285015260005b818110156103aa5785810183015185820160400152820161038e565b818111156103bc576000604083870101525b50601f01601f1916929092016040019392505050565b600181811c908216806103e657607f821691505b6020821081141561040757634e487b7160e01b600052602260045260246000fd5b50919050565b634e487b7160e01b600052604160045260246000fdfea2646970667358221220e08708ae051fdeedc93cd457dbed485051548bbba3cbfc796ffd2f6675dcc8d264736f6c63430008070033",
  "linkReferences": {},
  "deployedLinkReferences": {}
}